:020000040800F2
:1000000000000320990700081D07000829070008C1
:100010002F070008350700083B0700080000000014
:100020000000000000000000000000004107000880
:100030004D07000800000000590700086507000888
:10004000E9070008E9070008E9070008E9070008D0
:10005000E9070008E9070008E9070008E9070008C0
:10006000E9070008E9070008E9070008E9070008B0
:10007000E9070008E9070008E9070008E9070008A0
:10008000E9070008E9070008E9070008E907000890
:10009000E9070008E9070008E9070008E907000880
:1000A000E9070008E9070008E9070008E907000870
:1000B000E9070008E9070008E9070008E907000860
:1000C000E9070008E9070008E9070008E907000850
:1000D000E9070008E9070008E9070008E907000840
:1000E00071070008E9070008E9070008E9070008A8
:1000F000E9070008E9070008E9070008E907000820
:10010000E9070008E9070008E9070008E90700080F
:10011000E9070008E9070008E9070008E9070008FF
:10012000E9070008E9070008E9070008E9070008EF
:10013000E9070008E9070008E9070008E9070008DF
:10014000E9070008E9070008E9070008E9070008CF
:10015000E9070008E9070008E9070008E9070008BF
:10016000E9070008E9070008E9070008E9070008AF
:10017000E9070008E9070008E90700080000000097
:10018000E9070008E9070008E9070008E90700088F
:10019000E9070008E9070008E9070008E90700087F
:0C01A000E9070008E9070008E90700086B
:1001AC0010B5054C237833B9044B13B10448AFF3A5
:1001BC0000800123237010BD3C04002000000000CF
:1001CC009019000808B5034B1BB103490348AFF362
:1001DC00008008BD000000004004002090190008B9
:1001EC0053B94AB9002908BF00281CBF4FF0FF3192
:1001FC004FF0FF3000F074B9ADF1080C6DE904CE8E
:10020C0000F006F8DDF804E0DDE9022304B07047E5
:10021C002DE9F047089E0D4604468846002B4DD12B
:10022C008A42944668D9B2FA82F252B101FA02F3C8
:10023C00C2F1200120FA01F10CFA02FC41EA030898
:10024C0094404FEA1C45210CB8FBF5FE1FFA8CF7C5
:10025C0005FB1E8341EA03430EFB07F199420BD9C0
:10026C001CEB03030EF1FF3080F01E81994240F22B
:10027C001B81AEF1020E63445B1AA4B2B3FBF5F022
:10028C0005FB103344EA034400FB07F7A7420AD9E5
:10029C001CEB040400F1FF3380F00881A74240F20C
:1002AC00058164440238E41B40EA0E4000211EB173
:1002BC00D4400023C6E90043BDE8F0878B4208D93F
:1002CC00002E00F0EE800021C6E900050846BDE8CE
:1002DC00F087B3FA83F100294AD1AB4202D38242B0
:1002EC0000F2F980841A65EB030301209846002E76
:1002FC00E2D0C6E90048DFE702B9FFDEB2FA82F2CB
:10030C00002A40F09180A1EB0C054FEA1C471FFA24
:10031C008CFE0121B5FBF7F307FB1350250C45EAC6
:10032C0000450EFB03F0A84208D91CEB050503F1B0
:10033C00FF3802D2A84200F2CB8043462D1AA4B259
:10034C00B5FBF7F007FB105544EA05440EFB00FE25
:10035C00A64508D91CEB040400F1FF3502D2A645D2
:10036C0000F2BB802846A4EB0E0440EA03409EE753
:10037C00C1F120078B4022FA07FC4CEA030C20FA4F
:10038C0007F405FA01F31C43FD404FEA1C4900FA3F
:10039C0001F3B5FBF9F8200C1FFA8CFE09FB18557C
:1003AC0040EA054508FB0EF0A84202FA01F20BD90F
:1003BC001CEB050508F1FF3A80F08880A84240F25A
:1003CC008580A8F1020865442D1AA4B2B5FBF9F09A
:1003DC0009FB105544EA054500FB0EFEAE4508D955
:1003EC001CEB050500F1FF346CD2AE456AD902381E
:1003FC00654440EA0840A0FB0294A5EB0E05A5421B
:10040C00C846A64656D353D05EB1B3EB080265EB93
:10041C000E0505FA07F722FA01F3CD401F43C6E992
:10042C0000750021BDE8F087C2F1200320FA03F12A
:10043C000CFA02FC25FA03F395400D434FEA1C47D6
:10044C001FFA8CFEB3FBF7F107FB11302B0C43EAC0
:10045C00004301FB0EF0984204FA02F408D91CEB9D
:10046C00030301F1FF382FD298422DD9023963448E
:10047C001B1AADB2B3FBF7F007FB103345EA03458B
:10048C0000FB0EF3AB4208D91CEB050500F1FF385D
:10049C0016D2AB4214D902386544ED1A40EA014138
:1004AC0038E73146304607E78646E5E61846FAE671
:1004BC004B45A9D2B9EB020864EB0C0E0138A3E74B
:1004CC004046EAE7204694E74146D1E7D0467BE731
:1004DC00023B654432E7084609E76444023842E7C8
:1004EC00704700BF80B500AF00F07AF900F004F857
:1004FC0000F074F8FEE7000080B594B000AF07F18F
:10050C00200330220021184601F07AF907F10C0380
:10051C0000221A605A609A60DA601A610023BB608C
:10052C002C4B1B6C2B4A43F080531364294B1B6CD4
:10053C0003F08053BB60BB6800237B60264B1B68B9
:10054C00254A43F440431360234B1B6803F4404398
:10055C007B607B6801233B624FF480337B62022318
:10056C00BB634FF48003FB6319233B644FF4B473F8
:10057C007B640223BB640423FB6407F1200318464D
:10058C0000F000FD0346002B01D000F093F800F0C2
:10059C00A9FC0346002B01D000F08CF80F23FB6064
:1005AC0002233B6100237B614FF4A053BB614FF4EA
:1005BC008053FB6107F10C030521184600F050FF36
:1005CC000346002B01D000F075F800BF5037BD4634
:1005DC0080BD00BF003802400070004080B588B07C
:1005EC0000AF07F10C0300221A605A609A60DA60BF
:1005FC001A610023BB602B4B1B6B2A4A43F004038C
:10060C001363284B1B6B03F00403BB60BB68002314
:10061C007B60244B1B6B234A43F080031363214BF9
:10062C001B6B03F080037B607B6800233B601D4BDE
:10063C001B6B1C4A43F0010313631A4B1B6B03F037
:10064C0001033B603B6800224FF48061164800F0C8
:10065C00EDFB4FF40053FB60144B3B6102237B61B9
:10066C0007F10C031946124800F036FA4FF4806378
:10067C00FB6001233B6102237B610023BB6107F11B
:10068C000C031946084800F027FA00220021282004
:10069C0000F0EBF9282000F004FA00BF2037BD462B
:1006AC0080BD00BF00380240001C02400000311029
:1006BC000008024080B400AF00BFBD4680BC70474C
:1006CC0080B582B000AF00237B60104B5B6C0F4A8F
:1006DC0043F4804353640D4B5B6C03F480437B60A9
:1006EC007B6800233B60094B1B6C084A43F080532A
:1006FC001364064B1B6C03F080533B603B68052076
:10070C0000F0A8F900BF0837BD4680BD0038024094
:10071C0080B400AF00BFBD4680BC704780B400AF52
:10072C00FEE780B400AFFEE780B400AFFEE780B414
:10073C0000AFFEE780B400AF00BFBD4680BC704781
:10074C0080B400AF00BFBD4680BC704780B400AF22
:10075C0000BFBD4680BC704780B500AF00F092F87A
:10076C0000BF80BD80B500AF4FF4005000F090FB8F
:10077C0000BF80BD80B400AF034B4FF000629A60A5
:10078C0000BFBD4680BC704700ED00E0DFF834D000
:10079C00002103E00C4B5B58435004310B480C4BCD
:1007AC0042189A42F6D30B4A02E0002342F8043B6B
:1007BC00094B9A42F9D3FFF7DDFF00F0FDFFFFF77D
:1007CC0091FE704700000320D019000800000020A3
:1007DC003C0400203C04002060040020FEE70000E4
:1007EC0080B500AF0E4B1B680D4A43F400731360C9
:1007FC000B4B1B680A4A43F480631360084B1B685D
:10080C00074A43F480731360032000F023F900209F
:10081C0000F008F8FFF754FF0023184680BD00BF16
:10082C00003C024080B582B000AF7860124B1A6871
:10083C00124B1B7819464FF47A73B3FBF1F3B2FBEE
:10084C00F3F3184600F03BF90346002B01D00123CB
:10085C000EE07B680F2B0AD8002279684FF0FF302E
:10086C0000F003F9064A7B681360002300E00123C3
:10087C0018460837BD4680BD000000200800002047
:10088C000400002080B400AF054B1B781A46054BC2
:10089C001B681344034A136000BFBD4680BC7047FD
:1008AC00080000205804002080B400AF024B1B68E5
:1008BC001846BD4680BC70475804002080B485B0F3
:1008CC0000AF78607B6803F00703FB600C4BDB68C0
:1008DC00BB60BA684FF6FF031340BB60FB681A029B
:1008EC00BB68134343F0BF6343F40033BB60044A5B
:1008FC00BB68D36000BF1437BD4680BC704700BFD7
:10090C0000ED00E080B400AF044BDB681B0A03F081
:10091C0007031846BD4680BC704700BF00ED00E0E1
:10092C0080B483B000AF0346FB7197F90730002BFE
:10093C000BDBFB7903F01F02064997F907305B09C3
:10094C00012000FA02F241F8232000BF0C37BD460B
:10095C0080BC704700E100E080B483B000AF034678
:10096C003960FB7197F90730002B0ADB3B68DAB270
:10097C000C4997F907301201D2B20B4483F80023CB
:10098C000AE03B68DAB20849FB7903F00F03043B39
:10099C001201D2B20B441A7600BF0C37BD4680BC94
:1009AC00704700BF00E100E000ED00E080B489B0CA
:1009BC0000AFF860B9607A60FB6803F00703FB6175
:1009CC00FB69C3F10703042B28BF0423BB61FB693C
:1009DC000433062B02D9FB69033B00E000237B6147
:1009EC004FF0FF32BB6902FA03F3DA43BB681A40DB
:1009FC007B699A404FF0FF317B6901FA03F3D943CD
:100A0C007B680B40134318462437BD4680BC7047A7
:100A1C0080B582B000AF78607B68013BB3F1807F1A
:100A2C0001D301230FE00A4A7B68013B53600F217D
:100A3C004FF0FF30FFF790FF054B00229A60044BFC
:100A4C0007221A60002318460837BD4680BD00BF38
:100A5C0010E000E080B582B000AF78607868FFF7F6
:100A6C002DFF00BF0837BD4680BD80B586B000AFF6
:100A7C000346B9607A60FB7300237B61FFF742FF8A
:100A8C0078617A68B9687869FFF790FF024697F940
:100A9C000F3011461846FFF75FFF00BF1837BD46F1
:100AAC0080BD80B582B000AF0346FB7197F907306B
:100ABC001846FFF735FF00BF0837BD4680BD80B52F
:100ACC0082B000AF78607868FFF7A2FF0346184643
:100ADC000837BD4680BD000080B489B000AF786097
:100AEC00396000237B6100233B610023BB61002341
:100AFC00FB6177E10122FB6902FA03F37B613B683E
:100B0C001B687A6913403B613A697B699A4240F0F1
:100B1C0066813B685B68012B0BD03B685B68022BE2
:100B2C0007D03B685B68112B03D03B685B68122BCA
:100B3C0030D17B689B68BB61FB695B00032202FAC6
:100B4C0003F3DB43BA691340BB613B68DA68FB69AA
:100B5C005B0002FA03F3BA691343BB617B68BA69A1
:100B6C009A607B685B68BB610122FB6902FA03F344
:100B7C00DB43BA691340BB613B685B681B0903F03C
:100B8C000102FB6902FA03F3BA691343BB617B6888
:100B9C00BA695A607B68DB68BB61FB695B00032246
:100BAC0002FA03F3DB43BA691340BB613B689A68F2
:100BBC00FB695B0002FA03F3BA691343BB617B6800
:100BCC00BA69DA603B685B68022B03D03B685B68F0
:100BDC00122B23D1FB69DA087B68083253F82230D8
:100BEC00BB61FB6903F007039B000F2202FA03F3BE
:100BFC00DB43BA691340BB613B681A69FB6903F0BC
:100C0C0007039B0002FA03F3BA691343BB61FB6948
:100C1C00DA087B680832B96943F822107B681B68D4
:100C2C00BB61FB695B00032202FA03F3DB43BA6985
:100C3C001340BB613B685B6803F00302FB695B001C
:100C4C0002FA03F3BA691343BB617B68BA691A6091
:100C5C003B685B6803F08053002B00F0C0800023DE
:100C6C00FB60654B5B6C644A43F480435364624B9A
:100C7C005B6C03F48043FB60FB68604AFB699B0878
:100C8C00023352F82330BB61FB6903F003039B0072
:100C9C000F2202FA03F3DB43BA691340BB617B6892
:100CAC00574A934237D07B68564A934231D07B687F
:100CBC00554A93422BD07B68544A934225D07B688B
:100CCC00534A93421FD07B68524A934219D07B6897
:100CDC00514A934213D07B68504A93420DD07B68A3
:100CEC004F4A934207D07B684E4A934201D1092365
:100CFC0012E00A2310E008230EE007230CE0062381
:100D0C000AE0052308E0042306E0032304E00223A1
:100D1C0002E0012300E00023FA6902F003029200D2
:100D2C009340BA691343BB613449FB699B08023396
:100D3C00BA6941F823203C4B1B68BB613B69DB4320
:100D4C00BA691340BB613B685B6803F48033002BCA
:100D5C0003D0BA693B691343BB61334ABB69136067
:100D6C00314B5B68BB613B69DB43BA691340BB61C8
:100D7C003B685B6803F40033002B03D0BA693B6912
:100D8C001343BB61284ABB695360274B9B68BB610B
:100D9C003B69DB43BA691340BB613B685B6803F496
:100DAC008013002B03D0BA693B691343BB611E4A05
:100DBC00BB6993601C4BDB68BB613B69DB43BA6965
:100DCC001340BB613B685B6803F40013002B03D03A
:100DDC00BA693B691343BB61134ABB69D360FB69B6
:100DEC000133FB61FB690F2B7FF684AE00BF00BFA4
:100DFC002437BD4680BC70470038024000380140A3
:100E0C00000002400004024000080240000C0240B6
:100E1C00001002400014024000180240001C024066
:100E2C000020024000240240003C014080B483B00A
:100E3C0000AF78600B467B8013467B707B78002B71
:100E4C0003D07A887B689A6103E07B881A047B68FC
:100E5C009A6100BF0C37BD4680BC704780B483B02C
:100E6C0000AF78600B467B807B685A697B881A40A0
:100E7C007B889A4204D17B881A047B689A6102E0D1
:100E8C007A887B689A6100BF0C37BD4680BC70477E
:100E9C0080B582B000AF0346FB800B4B5A69FB88D0
:100EAC001340002B0BD04FF480610848FFF7D6FF9E
:100EBC00054AFB885361FB88184600F009F800BF0F
:100ECC000837BD4680BD00BF003C0140001C0240FD
:100EDC0080B483B000AF0346FB8000BF0C37BD4627
:100EEC0080BC704780B582B000AF00237B600023CC
:100EFC003B60204B1B6C1F4A43F0805313641D4B0B
:100F0C001B6C03F080533B603B681B4B01221A6047
:100F1C00FFF7CAFC786009E0FFF7C6FC02467B6865
:100F2C00D31AB3F57A7F01D903231FE0134B5B6807
:100F3C0003F48033B3F5803FEED1114B01221A60DC
:100F4C00FFF7B2FC786009E0FFF7AEFC02467B6865
:100F5C00D31AB3F57A7F01D9032307E0074B5B68FB
:100F6C0003F40033B3F5003FEED1002318460837E5
:100F7C00BD4680BD0038024040000E42007000406B
:100F8C0044000E4280B586B000AF78607B68002BC1
:100F9C0001D101235EE27B681B6803F00103002B87
:100FAC0075D0884B9B6803F00C03042B0CD0854B3D
:100FBC009B6803F00C03082B12D1824B5B6803F483
:100FCC008003B3F5800F0BD17E4B1B6803F4003309
:100FDC00002B5BD07B685B68002B57D1012339E277
:100FEC007B685B68B3F5803F06D1764B1B68754A0E
:100FFC0043F4803313601DE07B685B68B3F5A02F6E
:10100C000CD1704B1B686F4A43F4802313606D4BFB
:10101C001B686C4A43F4803313600BE0694B1B680C
:10102C00684A23F480331360664B1B68654A23F4CB
:10103C00802313607B685B68002B13D0FFF734FCB4
:10104C00386108E0FFF730FC02463B69D31A642B89
:10105C0001D90323FEE15B4B1B6803F40033002B27
:10106C00F0D014E0FFF720FC386108E0FFF71CFC1F
:10107C0002463B69D31A642B01D90323EAE1514B95
:10108C001B6803F40033002BF0D100E000BF7B6839
:10109C001B6803F00203002B63D04A4B9B6803F0E0
:1010AC000C03002B0BD0474B9B6803F00C03082B55
:1010BC001CD1444B5B6803F48003002B16D1414BCD
:1010CC001B6803F00203002B05D07B68DB68012B47
:1010DC0001D00123BEE13B4B1B6823F0F8027B6877
:1010EC001B69DB00374913430B603AE07B68DB6814
:1010FC00002B20D0344B01221A60FFF7D5FB38614E
:10110C0008E0FFF7D1FB02463B69D31A022B01D949
:10111C0003239FE12B4B1B6803F00203002BF0D041
:10112C00284B1B6823F0F8027B681B69DB00254900
:10113C0013430B6015E0244B00221A60FFF7B4FB3D
:10114C00386108E0FFF7B0FB02463B69D31A022B6B
:10115C0001D903237EE11B4B1B6803F00203002B18
:10116C00F0D17B681B6803F00803002B36D07B683A
:10117C005B69002B16D0154B01221A60FFF794FB0C
:10118C00386108E0FFF790FB02463B69D31A022B4B
:10119C0001D903235EE10B4B5B6F03F00203002BC1
:1011AC00F0D01BE0094B00221A60FFF77DFB386181
:1011BC000EE0FFF779FB02463B69D31A022B07D9E5
:1011CC00032347E10038024000004742800E4742AB
:1011DC00884B5B6F03F00203002BEAD17B681B6822
:1011EC0003F00403002B00F097800023FB75814B68
:1011FC001B6C03F08053002B0FD10023BB607D4B85
:10120C001B6C7C4A43F0805313647A4B1B6C03F0C9
:10121C008053BB60BB680123FB75774B1B6803F4E1
:10122C008073002B18D1744B1B68734A43F4807382
:10123C001360FFF739FB386108E0FFF735FB024616
:10124C003B69D31A022B01D9032303E16A4B1B68B8
:10125C0003F48073002BF0D07B689B68012B06D1C4
:10126C00644B1B6F634A43F0010313671CE07B68FC
:10127C009B68052B0CD15F4B1B6F5E4A43F004033C
:10128C0013675C4B1B6F5B4A43F0010313670BE066
:10129C00584B1B6F574A23F001031367554B1B6FB9
:1012AC00544A23F0040313677B689B68002B15D00A
:1012BC00FFF7FAFA38610AE0FFF7F6FA02463B69E3
:1012CC00D31A41F28832934201D90323C2E0494B2D
:1012DC001B6F03F00203002BEED014E0FFF7E4FACF
:1012EC0038610AE0FFF7E0FA02463B69D31A41F293
:1012FC008832934201D90323ACE03E4B1B6F03F0C1
:10130C000203002BEED1FB7D012B05D1394B1B6C5D
:10131C00384A23F0805313647B689B69002B00F0E0
:10132C009880344B9B6803F00C03082B5CD07B68D3
:10133C009B69022B41D1314B00221A60FFF7B4FAA2
:10134C00386108E0FFF7B0FA02463B69D31A022B6A
:10135C0001D903237EE0274B1B6803F00073002B9D
:10136C00F0D17B68DA697B681B6A1A437B685B6A1D
:10137C009B011A437B689B6A5B08013B1B041A4365
:10138C007B68DB6A1B061B4913434B601B4B01221A
:10139C001A60FFF789FA386108E0FFF785FA024610
:1013AC003B69D31A022B01D9032353E0114B1B6861
:1013BC0003F00073002BF0D04BE0104B00221A60AE
:1013CC00FFF772FA386108E0FFF76EFA02463B69E4
:1013DC00D31A022B01D903233CE0064B1B6803F004
:1013EC000073002BF0D134E07B689B69012B07D193
:1013FC0001232FE00038024000700040600047429B
:10140C00164B5B68FB60FB6803F480027B68DB694E
:10141C009A421CD1FB6803F03F027B681B6A9A421C
:10142C0015D1FA6847F6C07313407A68526A934232
:10143C000DD1FB6803F440327B689B6A9A4206D15B
:10144C00FB6803F070627B68DB6A9A4201D001236F
:10145C0000E0002318461837BD4680BD0038024016
:10146C0080B584B000AF786039607B68002B01D107
:10147C000123CCE0684B1B6803F00F033A689A42D7
:10148C000CD9654B3A68D2B21A70634B1B6803F0E7
:10149C000F033A689A4201D00123B8E07B681B68BD
:1014AC0003F00203002B20D07B681B6803F00403BD
:1014BC00002B05D0594B9B68584A43F4E05393607A
:1014CC007B681B6803F00803002B05D0534B9B680B
:1014DC00524A43F460439360504B9B6823F0F002F4
:1014EC007B689B684D4913438B607B681B6803F0DA
:1014FC000103002B44D07B685B68012B07D1474B61
:10150C001B6803F40033002B19D101237FE07B68A7
:10151C005B68022B03D07B685B68032B07D13F4BC6
:10152C001B6803F00073002B09D101236FE03B4BC8
:10153C001B6803F00203002B01D1012367E0374B3A
:10154C009B6823F003027B685B68344913438B6010
:10155C00FFF7AAF9F8600AE0FFF7A6F90246FB6864
:10156C00D31A41F28832934201D903234FE02B4B1B
:10157C009B6803F00C027B685B689B009A42EBD182
:10158C00254B1B6803F00F033A689A420CD2224B8E
:10159C003A68D2B21A70204B1B6803F00F033A68FA
:1015AC009A4201D0012332E07B681B6803F00403EC
:1015BC00002B08D0194B9B6823F4E0527B68DB6846
:1015CC00164913438B607B681B6803F00803002BE0
:1015DC0009D0124B9B6823F460427B681B69DB00CB
:1015EC000E4913438B6000F021F802460B4B9B68AD
:1015FC001B0903F00F030A49CB5C22FA03F3094AD7
:10160C001360094B1B681846FFF70CF900231846AA
:10161C001037BD4680BD00BF003C02400038024080
:10162C00A819000800000020040000202DE9B04F8C
:10163C0090B000AF00237B630023FB6300233B636C
:10164C000023BB63594B9B6803F00C03082B0DD094
:10165C00082B00F2A280002B02D0042B03D09CE0BC
:10166C00534BBB639CE0534BBB6399E04F4B5B68A4
:10167C0003F03F037B634D4B5B6803F48003002B4B
:10168C0027D04A4B5B689B0900223B627A623B6A1B
:10169C00C3F308000021474B03FB01F2002300FBBE
:1016AC0003F31344434AA0FB0221F962BA62FA6ABB
:1016BC001344FB627B6B0022BB61FA61D7E9062302
:1016CC00D7E90A01FEF78CFD02460B461346FB6375
:1016DC0055E0364B5B689B0900223B617A613B69A4
:1016EC00C3F3080A4FF0000B52465B464FF0000064
:1016FC004FF00001590141EAD261500102460B46FC
:10170C00B2EB0A0863EB0B094FF000024FF0000339
:10171C004FEA891343EA98634FEA8812B2EB080444
:10172C0063EB09054FF000024FF00003EB0043EAB6
:10173C005473E20014461D4614EB0A033B6045EB60
:10174C000B037B604FF000024FF00003D7E900451C
:10175C0029468B0220462946044643EA9453014607
:10176C008A02104619467B6B0022BB60FA60D7E9EF
:10177C000223FEF735FD02460B461346FB630B4B6B
:10178C005B681B0C03F0030301335B003B63FA6BD8
:10179C003B6BB2FBF3F3BB6302E0054BBB6300BFD7
:1017AC00BB6B18464037BD46BDE8B08F00380240D1
:1017BC000024F40040787D0170B50D4E0D4D761B64
:1017CC00B61006D0002455F8043B01349847A642C5
:1017DC00F9D1094E094D761B00F0D4F8B61006D09D
:1017EC00002455F8043B01349847A642F9D170BD4A
:1017FC00C4190008C4190008CC190008C419000841
:10180C00830730B548D0541E002A3FD0CAB20346D5
:10181C0001E0013C3AD303F8012B9D07F9D1032CCD
:10182C002DD9CDB245EA05250F2C45EA054536D90B
:10183C00A4F1100222F00F0C03F1200EE6444FEA43
:10184C00121C03F1100242E9045542E90255103210
:10185C007245F8D10CF1010214F00C0F03EB0212DB
:10186C0004F00F0C13D0ACF1040323F00303043386
:10187C00134442F8045B9342FBD10CF003042CB1EB
:10188C00CAB21C4403F8012B9C42FBD130BD644608
:10189C001346002CF4D1F9E703461446BFE71A4669
:1018AC00A446E0E7024B13B1024800F005B87047BC
:1018BC0000000000D1180008002301461A46184603
:1018CC0000F01AB838B5084B084D5B1B9C1007D0BC
:1018DC00043B1D44013C55F804399847002CF9D1C0
:1018EC00BDE8384000F054B8D0190008CC190008F5
:1018FC00704700BF704700BF2DE9F047DFF87CA0B0
:10190C000646DAF8000098460F469146FFF7F0FFBE
:10191C001B4B1B68D3F8484124B365681F2D26DC8C
:10192C005EB96B1C0235DAF80000636044F8257070
:10193C00FFF7E0FF0020BDE8F08704EB85010123F1
:10194C00C1F88890D4F88821AB401A43022EC4F811
:10195C008821C1F80881E4D1D4F88C211343C4F850
:10196C008C31DEE703F5A674C3F84841D5E7DAF805
:10197C000000FFF7BFFF4FF0FF30DCE7380400201A
:10198C00B8190008F8B500BFF8BC08BC9E467047F3
:0C199C00F8B500BFF8BC08BC9E467047C0
:1019A8000000000000000000010203040607080907
:0419B80010000020FB
:0819BC0060E8FF7F010000005C
:0819C400B1180008D101000870
:0419CC00AD01000861
:1019D0000024F400100000000100000000000000DE
:1019E00000000000FC02002064030020CC03002063
:1019F00000000000000000000000000000000000E7
:101A000000000000000000000000000000000000D6
:101A100000000000000000000000000000000000C6
:101A200000000000000000000000000000000000B6
:101A300000000000000000000000000000000000A6
:101A40000000000000000000000000000000000096
:101A50000000000000000000000000000000000086
:101A60000000000000000000000000000000000076
:101A70000000000000000000000000000000000066
:101A80000000000000000000010000000000000055
:101A90000E33CDAB34126DE6ECDE05000B0000001A
:101AA0000000000000000000000000000000000036
:101AB0000000000000000000000000000000000026
:101AC0000000000000000000000000000000000016
:101AD0000000000000000000000000000000000006
:0C1E000000000000000000005C04002056
:04000005080007994F
:00000001FF
